{
  "_format": "hh-sol-artifact-1",
  "contractName": "MedicalRecords",
  "sourceName": "contracts/MedicalRecords.sol",
  "abi": [
    {
      "inputs": [],
      "stateMutability": "nonpayable",
      "type": "constructor"
    },
    {
      "anonymous": false,
      "inputs": [
        {
          "indexed": true,
          "internalType": "address",
          "name": "patientAddress",
          "type": "address"
        },
        {
          "indexed": true,
          "internalType": "address",
          "name": "doctorAddress",
          "type": "address"
        }
      ],
      "name": "AccessGranted",
      "type": "event"
    },
    {
      "anonymous": false,
      "inputs": [
        {
          "indexed": true,
          "internalType": "address",
          "name": "patientAddress",
          "type": "address"
        },
        {
          "indexed": true,
          "internalType": "address",
          "name": "doctorAddress",
          "type": "address"
        }
      ],
      "name": "AccessRevoked",
      "type": "event"
    },
    {
      "anonymous": false,
      "inputs": [
        {
          "indexed": true,
          "internalType": "address",
          "name": "doctorAddress",
          "type": "address"
        },
        {
          "indexed": false,
          "internalType": "bool",
          "name": "isAuthorized",
          "type": "bool"
        }
      ],
      "name": "DoctorAuthorized",
      "type": "event"
    },
    {
      "anonymous": false,
      "inputs": [
        {
          "indexed": true,
          "internalType": "address",
          "name": "doctorAddress",
          "type": "address"
        },
        {
          "indexed": false,
          "internalType": "string",
          "name": "name",
          "type": "string"
        },
        {
          "indexed": false,
          "internalType": "string",
          "name": "specialization",
          "type": "string"
        }
      ],
      "name": "DoctorRegistered",
      "type": "event"
    },
    {
      "anonymous": false,
      "inputs": [
        {
          "indexed": true,
          "internalType": "address",
          "name": "patientAddress",
          "type": "address"
        },
        {
          "indexed": false,
          "internalType": "string",
          "name": "name",
          "type": "string"
        }
      ],
      "name": "PatientRegistered",
      "type": "event"
    },
    {
      "anonymous": false,
      "inputs": [
        {
          "indexed": true,
          "internalType": "uint256",
          "name": "recordId",
          "type": "uint256"
        },
        {
          "indexed": true,
          "internalType": "address",
          "name": "patientAddress",
          "type": "address"
        },
        {
          "indexed": true,
          "internalType": "address",
          "name": "doctorAddress",
          "type": "address"
        }
      ],
      "name": "RecordAdded",
      "type": "event"
    },
    {
      "inputs": [
        {
          "internalType": "address",
          "name": "_patientAddress",
          "type": "address"
        },
        {
          "internalType": "string",
          "name": "_diagnosis",
          "type": "string"
        },
        {
          "internalType": "string",
          "name": "_treatment",
          "type": "string"
        },
        {
          "internalType": "string",
          "name": "_medication",
          "type": "string"
        },
        {
          "internalType": "string",
          "name": "_notes",
          "type": "string"
        }
      ],
      "name": "addMedicalRecord",
      "outputs": [],
      "stateMutability": "nonpayable",
      "type": "function"
    },
    {
      "inputs": [],
      "name": "admin",
      "outputs": [
        {
          "internalType": "address",
          "name": "",
          "type": "address"
        }
      ],
      "stateMutability": "view",
      "type": "function"
    },
    {
      "inputs": [
        {
          "internalType": "address",
          "name": "",
          "type": "address"
        },
        {
          "internalType": "address",
          "name": "",
          "type": "address"
        }
      ],
      "name": "authorizedAccess",
      "outputs": [
        {
          "internalType": "bool",
          "name": "",
          "type": "bool"
        }
      ],
      "stateMutability": "view",
      "type": "function"
    },
    {
      "inputs": [],
      "name": "doctorCount",
      "outputs": [
        {
          "internalType": "uint256",
          "name": "",
          "type": "uint256"
        }
      ],
      "stateMutability": "view",
      "type": "function"
    },
    {
      "inputs": [
        {
          "internalType": "address",
          "name": "",
          "type": "address"
        }
      ],
      "name": "doctors",
      "outputs": [
        {
          "internalType": "address",
          "name": "walletAddress",
          "type": "address"
        },
        {
          "internalType": "string",
          "name": "name",
          "type": "string"
        },
        {
          "internalType": "string",
          "name": "specialization",
          "type": "string"
        },
        {
          "internalType": "string",
          "name": "licenseNumber",
          "type": "string"
        },
        {
          "internalType": "bool",
          "name": "exists",
          "type": "bool"
        },
        {
          "internalType": "bool",
          "name": "isAuthorized",
          "type": "bool"
        }
      ],
      "stateMutability": "view",
      "type": "function"
    },
    {
      "inputs": [
        {
          "internalType": "address",
          "name": "_doctorAddress",
          "type": "address"
        }
      ],
      "name": "getDoctor",
      "outputs": [
        {
          "internalType": "string",
          "name": "name",
          "type": "string"
        },
        {
          "internalType": "string",
          "name": "specialization",
          "type": "string"
        },
        {
          "internalType": "string",
          "name": "licenseNumber",
          "type": "string"
        },
        {
          "internalType": "bool",
          "name": "exists",
          "type": "bool"
        },
        {
          "internalType": "bool",
          "name": "isAuthorized",
          "type": "bool"
        }
      ],
      "stateMutability": "view",
      "type": "function"
    },
    {
      "inputs": [
        {
          "internalType": "uint256",
          "name": "_recordId",
          "type": "uint256"
        }
      ],
      "name": "getMedicalRecord",
      "outputs": [
        {
          "internalType": "address",
          "name": "patientAddress",
          "type": "address"
        },
        {
          "internalType": "string",
          "name": "diagnosis",
          "type": "string"
        },
        {
          "internalType": "string",
          "name": "treatment",
          "type": "string"
        },
        {
          "internalType": "string",
          "name": "medication",
          "type": "string"
        },
        {
          "internalType": "string",
          "name": "notes",
          "type": "string"
        },
        {
          "internalType": "uint256",
          "name": "date",
          "type": "uint256"
        },
        {
          "internalType": "address",
          "name": "doctorAddress",
          "type": "address"
        }
      ],
      "stateMutability": "view",
      "type": "function"
    },
    {
      "inputs": [
        {
          "internalType": "address",
          "name": "_patientAddress",
          "type": "address"
        }
      ],
      "name": "getPatient",
      "outputs": [
        {
          "internalType": "string",
          "name": "name",
          "type": "string"
        },
        {
          "internalType": "uint256",
          "name": "dateOfBirth",
          "type": "uint256"
        },
        {
          "internalType": "string",
          "name": "gender",
          "type": "string"
        },
        {
          "internalType": "string",
          "name": "publicKey",
          "type": "string"
        },
        {
          "internalType": "bool",
          "name": "exists",
          "type": "bool"
        }
      ],
      "stateMutability": "view",
      "type": "function"
    },
    {
      "inputs": [
        {
          "internalType": "address",
          "name": "_patientAddress",
          "type": "address"
        }
      ],
      "name": "getPatientRecordIds",
      "outputs": [
        {
          "internalType": "uint256[]",
          "name": "",
          "type": "uint256[]"
        }
      ],
      "stateMutability": "view",
      "type": "function"
    },
    {
      "inputs": [],
      "name": "getStats",
      "outputs": [
        {
          "internalType": "uint256",
          "name": "",
          "type": "uint256"
        },
        {
          "internalType": "uint256",
          "name": "",
          "type": "uint256"
        },
        {
          "internalType": "uint256",
          "name": "",
          "type": "uint256"
        }
      ],
      "stateMutability": "view",
      "type": "function"
    },
    {
      "inputs": [
        {
          "internalType": "address",
          "name": "_doctorAddress",
          "type": "address"
        }
      ],
      "name": "grantAccess",
      "outputs": [],
      "stateMutability": "nonpayable",
      "type": "function"
    },
    {
      "inputs": [
        {
          "internalType": "address",
          "name": "_patientAddress",
          "type": "address"
        },
        {
          "internalType": "address",
          "name": "_doctorAddress",
          "type": "address"
        }
      ],
      "name": "isAccessGranted",
      "outputs": [
        {
          "internalType": "bool",
          "name": "",
          "type": "bool"
        }
      ],
      "stateMutability": "view",
      "type": "function"
    },
    {
      "inputs": [
        {
          "internalType": "uint256",
          "name": "",
          "type": "uint256"
        }
      ],
      "name": "medicalRecords",
      "outputs": [
        {
          "internalType": "uint256",
          "name": "recordId",
          "type": "uint256"
        },
        {
          "internalType": "address",
          "name": "patientAddress",
          "type": "address"
        },
        {
          "internalType": "string",
          "name": "diagnosis",
          "type": "string"
        },
        {
          "internalType": "string",
          "name": "treatment",
          "type": "string"
        },
        {
          "internalType": "string",
          "name": "medication",
          "type": "string"
        },
        {
          "internalType": "string",
          "name": "notes",
          "type": "string"
        },
        {
          "internalType": "uint256",
          "name": "date",
          "type": "uint256"
        },
        {
          "internalType": "address",
          "name": "doctorAddress",
          "type": "address"
        }
      ],
      "stateMutability": "view",
      "type": "function"
    },
    {
      "inputs": [],
      "name": "patientCount",
      "outputs": [
        {
          "internalType": "uint256",
          "name": "",
          "type": "uint256"
        }
      ],
      "stateMutability": "view",
      "type": "function"
    },
    {
      "inputs": [
        {
          "internalType": "address",
          "name": "",
          "type": "address"
        },
        {
          "internalType": "uint256",
          "name": "",
          "type": "uint256"
        }
      ],
      "name": "patientRecords",
      "outputs": [
        {
          "internalType": "uint256",
          "name": "",
          "type": "uint256"
        }
      ],
      "stateMutability": "view",
      "type": "function"
    },
    {
      "inputs": [
        {
          "internalType": "address",
          "name": "",
          "type": "address"
        }
      ],
      "name": "patients",
      "outputs": [
        {
          "internalType": "address",
          "name": "walletAddress",
          "type": "address"
        },
        {
          "internalType": "string",
          "name": "name",
          "type": "string"
        },
        {
          "internalType": "uint256",
          "name": "dateOfBirth",
          "type": "uint256"
        },
        {
          "internalType": "string",
          "name": "gender",
          "type": "string"
        },
        {
          "internalType": "string",
          "name": "publicKey",
          "type": "string"
        },
        {
          "internalType": "bool",
          "name": "exists",
          "type": "bool"
        }
      ],
      "stateMutability": "view",
      "type": "function"
    },
    {
      "inputs": [],
      "name": "recordCount",
      "outputs": [
        {
          "internalType": "uint256",
          "name": "",
          "type": "uint256"
        }
      ],
      "stateMutability": "view",
      "type": "function"
    },
    {
      "inputs": [
        {
          "internalType": "address",
          "name": "_doctorAddress",
          "type": "address"
        },
        {
          "internalType": "string",
          "name": "_name",
          "type": "string"
        },
        {
          "internalType": "string",
          "name": "_specialization",
          "type": "string"
        },
        {
          "internalType": "string",
          "name": "_licenseNumber",
          "type": "string"
        }
      ],
      "name": "registerDoctor",
      "outputs": [],
      "stateMutability": "nonpayable",
      "type": "function"
    },
    {
      "inputs": [
        {
          "internalType": "string",
          "name": "_name",
          "type": "string"
        },
        {
          "internalType": "uint256",
          "name": "_dateOfBirth",
          "type": "uint256"
        },
        {
          "internalType": "string",
          "name": "_gender",
          "type": "string"
        },
        {
          "internalType": "string",
          "name": "_publicKey",
          "type": "string"
        }
      ],
      "name": "registerPatient",
      "outputs": [],
      "stateMutability": "nonpayable",
      "type": "function"
    },
    {
      "inputs": [
        {
          "internalType": "address",
          "name": "_doctorAddress",
          "type": "address"
        }
      ],
      "name": "revokeAccess",
      "outputs": [],
      "stateMutability": "nonpayable",
      "type": "function"
    },
    {
      "inputs": [
        {
          "internalType": "address",
          "name": "_doctorAddress",
          "type": "address"
        },
        {
          "internalType": "bool",
          "name": "_isAuthorized",
          "type": "bool"
        }
      ],
      "name": "setDoctorAuthorization",
      "outputs": [],
      "stateMutability": "nonpayable",
      "type": "function"
    }
  ],
  "bytecode": "0x608060405234801561001057600080fd5b50336000806101000a81548173ffffffffffffffffffffffffffffffffffffffff021916908373ffffffffffffffffffffffffffffffffffffffff160217905550600060068190555060006007819055506000600881905550613cbb806100786000396000f3fe608060405234801561001057600080fd5b50600436106101375760003560e01c806394f0df61116100b8578063b5368e201161007c578063b5368e20146103a1578063bab2621f146103d5578063c59d484714610405578063f010d7bf14610425578063f851a44014610441578063fa2323d21461045f57610137565b806394f0df61146102d2578063952481a014610302578063a0303c4114610332578063a9583c2214610350578063afbf6a7b1461038557610137565b80637564a13c116100ff5780637564a13c1461022757806378522bc41461025e57806385e685311461027c578063900407bc1461029857806393c095ff146102b657610137565b80630869cfbc1461013c5780630ae5e739146101715780630c3887221461018d5780632f04e064146101c35780636248204e146101f7575b600080fd5b61015660048036038101906101519190612951565b61047b565b60405161016896959493929190612a51565b60405180910390f35b61018b60048036038101906101869190612951565b61067c565b005b6101a760048036038101906101a29190612af3565b61091d565b6040516101ba9796959493929190612b20565b60405180910390f35b6101dd60048036038101906101d89190612951565b610def565b6040516101ee959493929190612bab565b60405180910390f35b610211600480360381019061020c9190612951565b6110b4565b60405161021e9190612cd1565b60405180910390f35b610241600480360381019061023c9190612af3565b6112a2565b604051610255989796959493929190612cf3565b60405180910390f35b61026661154a565b6040516102739190612d8d565b60405180910390f35b61029660048036038101906102919190612951565b611550565b005b6102a06116d3565b6040516102ad9190612d8d565b60405180910390f35b6102d060048036038101906102cb9190612edd565b6116d9565b005b6102ec60048036038101906102e79190612f98565b6119fd565b6040516102f99190612d8d565b60405180910390f35b61031c60048036038101906103179190612fd8565b611a2e565b6040516103299190613018565b60405180910390f35b61033a611ac2565b6040516103479190612d8d565b60405180910390f35b61036a60048036038101906103659190612951565b611ac8565b60405161037c96959493929190613033565b60405180910390f35b61039f600480360381019061039a91906130a9565b611cd6565b005b6103bb60048036038101906103b69190612951565b61217b565b6040516103cc959493929190613194565b60405180910390f35b6103ef60048036038101906103ea9190612fd8565b61242f565b6040516103fc9190613018565b60405180910390f35b61040d61245e565b60405161041c939291906131fc565b60405180910390f35b61043f600480360381019061043a919061325f565b612477565b005b610449612640565b604051610456919061329f565b60405180910390f35b610479600480360381019061047491906132ba565b612664565b005b60016020528060005260406000206000915090508060000160009054906101000a900473ffffffffffffffffffffffffffffffffffffffff16908060010180546104c4906133a4565b80601f01602080910402602001604051908101604052809291908181526020018280546104f0906133a4565b801561053d5780601f106105125761010080835404028352916020019161053d565b820191906000526020600020905b81548152906001019060200180831161052057829003601f168201915b505050505090806002015490806003018054610558906133a4565b80601f0160208091040260200160405190810160405280929190818152602001828054610584906133a4565b80156105d15780601f106105a6576101008083540402835291602001916105d1565b820191906000526020600020905b8154815290600101906020018083116105b457829003601f168201915b5050505050908060040180546105e6906133a4565b80601f0160208091040260200160405190810160405280929190818152602001828054610612906133a4565b801561065f5780601f106106345761010080835404028352916020019161065f565b820191906000526020600020905b81548152906001019060200180831161064257829003601f168201915b5050505050908060050160009054906101000a900460ff16905086565b33600160008273ffffffffffffffffffffffffffffffffffffffff1673ffffffffffffffffffffffffffffffffffffffff16815260200190815260200160002060050160009054906101000a900460ff1661070c576040517f08c379a000000000000000000000000000000000000000000000000000000000815260040161070390613421565b60405180910390fd5b600260008373ffffffffffffffffffffffffffffffffffffffff1673ffffffffffffffffffffffffffffffffffffffff16815260200190815260200160002060040160009054906101000a900460ff1661079b576040517f08c379a00000000000000000000000000000000000000000000000000000000081526004016107929061348d565b60405180910390fd5b600260008373ffffffffffffffffffffffffffffffffffffffff1673ffffffffffffffffffffffffffffffffffffffff16815260200190815260200160002060040160019054906101000a900460ff1661082a576040517f08c379a0000000000000000000000000000000000000000000000000000000008152600401610821906134f9565b60405180910390fd5b6001600560003373ffffffffffffffffffffffffffffffffffffffff1673ffffffffffffffffffffffffffffffffffffffff16815260200190815260200160002060008473ffffffffffffffffffffffffffffffffffffffff1673ffffffffffffffffffffffffffffffffffffffff16815260200190815260200160002060006101000a81548160ff0219169083151502179055508173ffffffffffffffffffffffffffffffffffffffff163373ffffffffffffffffffffffffffffffffffffffff167f9f520b3bfc56d06f7065d10b4683b3f57ac8895d5026cd176dee95ce1454cb8d60405160405180910390a35050565b60006060806060806000806000600360008a815260200190815260200160002060405180610100016040529081600082015481526020016001820160009054906101000a900473ffffffffffffffffffffffffffffffffffffffff1673ffffffffffffffffffffffffffffffffffffffff1673ffffffffffffffffffffffffffffffffffffffff1681526020016002820180546109b9906133a4565b80601f01602080910402602001604051908101604052809291908181526020018280546109e5906133a4565b8015610a325780601f10610a0757610100808354040283529160200191610a32565b820191906000526020600020905b815481529060010190602001808311610a1557829003601f168201915b50505050508152602001600382018054610a4b906133a4565b80601f0160208091040260200160405190810160405280929190818152602001828054610a77906133a4565b8015610ac45780601f10610a9957610100808354040283529160200191610ac4565b820191906000526020600020905b815481529060010190602001808311610aa757829003601f168201915b50505050508152602001600482018054610add906133a4565b80601f0160208091040260200160405190810160405280929190818152602001828054610b09906133a4565b8015610b565780601f10610b2b57610100808354040283529160200191610b56565b820191906000526020600020905b815481529060010190602001808311610b3957829003601f168201915b50505050508152602001600582018054610b6f906133a4565b80601f0160208091040260200160405190810160405280929190818152602001828054610b9b906133a4565b8015610be85780601f10610bbd57610100808354040283529160200191610be8565b820191906000526020600020905b815481529060010190602001808311610bcb57829003601f168201915b50505050508152602001600682015481526020016007820160009054906101000a900473ffffffffffffffffffffffffffffffffffffffff1673ffffffffffffffffffffffffffffffffffffffff1673ffffffffffffffffffffffffffffffffffffffff168152505090503373ffffffffffffffffffffffffffffffffffffffff16816020015173ffffffffffffffffffffffffffffffffffffffff161480610d735750600260003373ffffffffffffffffffffffffffffffffffffffff1673ffffffffffffffffffffffffffffffffffffffff16815260200190815260200160002060040160009054906101000a900460ff168015610d72575060056000826020015173ffffffffffffffffffffffffffffffffffffffff1673ffffffffffffffffffffffffffffffffffffffff16815260200190815260200160002060003373ffffffffffffffffffffffffffffffffffffffff1673ffffffffffffffffffffffffffffffffffffffff16815260200190815260200160002060009054906101000a900460ff165b5b610db2576040517f08c379a0000000000000000000000000000000000000000000000000000000008152600401610da99061358b565b60405180910390fd5b80602001518160400151826060015183608001518460a001518560c001518660e00151975097509750975097509750975050919395979092949650565b60608060606000806000600260008873ffffffffffffffffffffffffffffffffffffffff1673ffffffffffffffffffffffffffffffffffffffff1681526020019081526020016000206040518060c00160405290816000820160009054906101000a900473ffffffffffffffffffffffffffffffffffffffff1673ffffffffffffffffffffffffffffffffffffffff1673ffffffffffffffffffffffffffffffffffffffff168152602001600182018054610ea9906133a4565b80601f0160208091040260200160405190810160405280929190818152602001828054610ed5906133a4565b8015610f225780601f10610ef757610100808354040283529160200191610f22565b820191906000526020600020905b815481529060010190602001808311610f0557829003601f168201915b50505050508152602001600282018054610f3b906133a4565b80601f0160208091040260200160405190810160405280929190818152602001828054610f67906133a4565b8015610fb45780601f10610f8957610100808354040283529160200191610fb4565b820191906000526020600020905b815481529060010190602001808311610f9757829003601f168201915b50505050508152602001600382018054610fcd906133a4565b80601f0160208091040260200160405190810160405280929190818152602001828054610ff9906133a4565b80156110465780601f1061101b57610100808354040283529160200191611046565b820191906000526020600020905b81548152906001019060200180831161102957829003601f168201915b505050505081526020016004820160009054906101000a900460ff161515151581526020016004820160019054906101000a900460ff161515151581525050905080602001518160400151826060015183608001518460a00151955095509550955095505091939590929450565b60603373ffffffffffffffffffffffffffffffffffffffff168273ffffffffffffffffffffffffffffffffffffffff1614806111ce5750600260003373ffffffffffffffffffffffffffffffffffffffff1673ffffffffffffffffffffffffffffffffffffffff16815260200190815260200160002060040160009054906101000a900460ff1680156111cd5750600560008373ffffffffffffffffffffffffffffffffffffffff1673ffffffffffffffffffffffffffffffffffffffff16815260200190815260200160002060003373ffffffffffffffffffffffffffffffffffffffff1673ffffffffffffffffffffffffffffffffffffffff16815260200190815260200160002060009054906101000a900460ff165b5b61120d576040517f08c379a00000000000000000000000000000000000000000000000000000000081526004016112049061361d565b60405180910390fd5b600460008373ffffffffffffffffffffffffffffffffffffffff1673ffffffffffffffffffffffffffffffffffffffff16815260200190815260200160002080548060200260200160405190810160405280929190818152602001828054801561129657602002820191906000526020600020905b815481526020019060010190808311611282575b50505050509050919050565b60036020528060005260406000206000915090508060000154908060010160009054906101000a900473ffffffffffffffffffffffffffffffffffffffff16908060020180546112f1906133a4565b80601f016020809104026020016040519081016040528092919081815260200182805461131d906133a4565b801561136a5780601f1061133f5761010080835404028352916020019161136a565b820191906000526020600020905b81548152906001019060200180831161134d57829003601f168201915b50505050509080600301805461137f906133a4565b80601f01602080910402602001604051908101604052809291908181526020018280546113ab906133a4565b80156113f85780601f106113cd576101008083540402835291602001916113f8565b820191906000526020600020905b8154815290600101906020018083116113db57829003601f168201915b50505050509080600401805461140d906133a4565b80601f0160208091040260200160405190810160405280929190818152602001828054611439906133a4565b80156114865780601f1061145b57610100808354040283529160200191611486565b820191906000526020600020905b81548152906001019060200180831161146957829003601f168201915b50505050509080600501805461149b906133a4565b80601f01602080910402602001604051908101604052809291908181526020018280546114c7906133a4565b80156115145780601f106114e957610100808354040283529160200191611514565b820191906000526020600020905b8154815290600101906020018083116114f757829003601f168201915b5050505050908060060154908060070160009054906101000a900473ffffffffffffffffffffffffffffffffffffffff16905088565b60085481565b33600160008273ffffffffffffffffffffffffffffffffffffffff1673ffffffffffffffffffffffffffffffffffffffff16815260200190815260200160002060050160009054906101000a900460ff166115e0576040517f08c379a00000000000000000000000000000000000000000000000000000000081526004016115d790613421565b60405180910390fd5b6000600560003373ffffffffffffffffffffffffffffffffffffffff1673ffffffffffffffffffffffffffffffffffffffff16815260200190815260200160002060008473ffffffffffffffffffffffffffffffffffffffff1673ffffffffffffffffffffffffffffffffffffffff16815260200190815260200160002060006101000a81548160ff0219169083151502179055508173ffffffffffffffffffffffffffffffffffffffff163373ffffffffffffffffffffffffffffffffffffffff167f825c8be24eb0df19500f63e86c29e7d0d951e73056b889b891d85e40938d9b6e60405160405180910390a35050565b60065481565b60008054906101000a900473ffffffffffffffffffffffffffffffffffffffff1673ffffffffffffffffffffffffffffffffffffffff163373ffffffffffffffffffffffffffffffffffffffff1614611767576040517f08c379a000000000000000000000000000000000000000000000000000000000815260040161175e906136af565b60405180910390fd5b600260008573ffffffffffffffffffffffffffffffffffffffff1673ffffffffffffffffffffffffffffffffffffffff16815260200190815260200160002060040160009054906101000a900460ff16156117f7576040517f08c379a00000000000000000000000000000000000000000000000000000000081526004016117ee9061371b565b60405180910390fd5b600083511161183b576040517f08c379a000000000000000000000000000000000000000000000000000000000815260040161183290613787565b60405180910390fd5b6040518060c001604052808573ffffffffffffffffffffffffffffffffffffffff16815260200184815260200183815260200182815260200160011515815260200160011515815250600260008673ffffffffffffffffffffffffffffffffffffffff1673ffffffffffffffffffffffffffffffffffffffff16815260200190815260200160002060008201518160000160006101000a81548173ffffffffffffffffffffffffffffffffffffffff021916908373ffffffffffffffffffffffffffffffffffffffff160217905550602082015181600101908161191f9190613953565b5060408201518160020190816119359190613953565b50606082015181600301908161194b9190613953565b5060808201518160040160006101000a81548160ff02191690831515021790555060a08201518160040160016101000a81548160ff021916908315150217905550905050600860008154809291906119a290613a54565b91905055508373ffffffffffffffffffffffffffffffffffffffff167fbc3a5b2aeb1bc52e3d56d3fd3423dd66cea5ecff8ae1f3bd0d75a0e608da7b8584846040516119ef929190613a9c565b60405180910390a250505050565b60046020528160005260406000208181548110611a1957600080fd5b90600052602060002001600091509150505481565b6000600560008473ffffffffffffffffffffffffffffffffffffffff1673ffffffffffffffffffffffffffffffffffffffff16815260200190815260200160002060008373ffffffffffffffffffffffffffffffffffffffff1673ffffffffffffffffffffffffffffffffffffffff16815260200190815260200160002060009054906101000a900460ff16905092915050565b60075481565b60026020528060005260406000206000915090508060000160009054906101000a900473ffffffffffffffffffffffffffffffffffffffff1690806001018054611b11906133a4565b80601f0160208091040260200160405190810160405280929190818152602001828054611b3d906133a4565b8015611b8a5780601f10611b5f57610100808354040283529160200191611b8a565b820191906000526020600020905b815481529060010190602001808311611b6d57829003601f168201915b505050505090806002018054611b9f906133a4565b80601f0160208091040260200160405190810160405280929190818152602001828054611bcb906133a4565b8015611c185780601f10611bed57610100808354040283529160200191611c18565b820191906000526020600020905b815481529060010190602001808311611bfb57829003601f168201915b505050505090806003018054611c2d906133a4565b80601f0160208091040260200160405190810160405280929190818152602001828054611c59906133a4565b8015611ca65780601f10611c7b57610100808354040283529160200191611ca6565b820191906000526020600020905b815481529060010190602001808311611c8957829003601f168201915b5050505050908060040160009054906101000a900460ff16908060040160019054906101000a900460ff16905086565b600260003373ffffffffffffffffffffffffffffffffffffffff1673ffffffffffffffffffffffffffffffffffffffff16815260200190815260200160002060040160009054906101000a900460ff168015611d7e5750600260003373ffffffffffffffffffffffffffffffffffffffff1673ffffffffffffffffffffffffffffffffffffffff16815260200190815260200160002060040160019054906101000a900460ff165b611dbd576040517f08c379a0000000000000000000000000000000000000000000000000000000008152600401611db490613b45565b60405180910390fd5b84600160008273ffffffffffffffffffffffffffffffffffffffff1673ffffffffffffffffffffffffffffffffffffffff16815260200190815260200160002060050160009054906101000a900460ff16611e4d576040517f08c379a0000000000000000000000000000000000000000000000000000000008152600401611e4490613421565b60405180910390fd5b600560008773ffffffffffffffffffffffffffffffffffffffff1673ffffffffffffffffffffffffffffffffffffffff16815260200190815260200160002060003373ffffffffffffffffffffffffffffffffffffffff1673ffffffffffffffffffffffffffffffffffffffff16815260200190815260200160002060009054906101000a900460ff16611f16576040517f08c379a0000000000000000000000000000000000000000000000000000000008152600401611f0d90613bd7565b60405180910390fd5b60066000815480929190611f2990613a54565b9190505550600060405180610100016040528060065481526020018873ffffffffffffffffffffffffffffffffffffffff1681526020018781526020018681526020018581526020018481526020014281526020013373ffffffffffffffffffffffffffffffffffffffff168152509050806003600060065481526020019081526020016000206000820151816000015560208201518160010160006101000a81548173ffffffffffffffffffffffffffffffffffffffff021916908373ffffffffffffffffffffffffffffffffffffffff16021790555060408201518160020190816120169190613953565b50606082015181600301908161202c9190613953565b5060808201518160040190816120429190613953565b5060a08201518160050190816120589190613953565b5060c0820151816006015560e08201518160070160006101000a81548173ffffffffffffffffffffffffffffffffffffffff021916908373ffffffffffffffffffffffffffffffffffffffff160217905550905050600460008873ffffffffffffffffffffffffffffffffffffffff1673ffffffffffffffffffffffffffffffffffffffff16815260200190815260200160002060065490806001815401808255809150506001900390600052602060002001600090919091909150553373ffffffffffffffffffffffffffffffffffffffff168773ffffffffffffffffffffffffffffffffffffffff166006547f45cbd8514e76f91fe5ca7e77740d71af49ae7b9b7d629fab5a016e5883f87ad160405160405180910390a450505050505050565b60606000606080600080600160008873ffffffffffffffffffffffffffffffffffffffff1673ffffffffffffffffffffffffffffffffffffffff1681526020019081526020016000206040518060c00160405290816000820160009054906101000a900473ffffffffffffffffffffffffffffffffffffffff1673ffffffffffffffffffffffffffffffffffffffff1673ffffffffffffffffffffffffffffffffffffffff168152602001600182018054612235906133a4565b80601f0160208091040260200160405190810160405280929190818152602001828054612261906133a4565b80156122ae5780601f10612283576101008083540402835291602001916122ae565b820191906000526020600020905b81548152906001019060200180831161229157829003601f168201915b50505050508152602001600282015481526020016003820180546122d1906133a4565b80601f01602080910402602001604051908101604052809291908181526020018280546122fd906133a4565b801561234a5780601f1061231f5761010080835404028352916020019161234a565b820191906000526020600020905b81548152906001019060200180831161232d57829003601f168201915b50505050508152602001600482018054612363906133a4565b80601f016020809104026020016040519081016040528092919081815260200182805461238f906133a4565b80156123dc5780601f106123b1576101008083540402835291602001916123dc565b820191906000526020600020905b8154815290600101906020018083116123bf57829003601f168201915b505050505081526020016005820160009054906101000a900460ff161515151581525050905080602001518160400151826060015183608001518460a00151955095509550955095505091939590929450565b60056020528160005260406000206020528060005260406000206000915091509054906101000a900460ff1681565b6000806000600754600854600654925092509250909192565b60008054906101000a900473ffffffffffffffffffffffffffffffffffffffff1673ffffffffffffffffffffffffffffffffffffffff163373ffffffffffffffffffffffffffffffffffffffff1614612505576040517f08c379a00000000000000000000000000000000000000000000000000000000081526004016124fc906136af565b60405180910390fd5b600260008373ffffffffffffffffffffffffffffffffffffffff1673ffffffffffffffffffffffffffffffffffffffff16815260200190815260200160002060040160009054906101000a900460ff16612594576040517f08c379a000000000000000000000000000000000000000000000000000000000815260040161258b9061348d565b60405180910390fd5b80600260008473ffffffffffffffffffffffffffffffffffffffff1673ffffffffffffffffffffffffffffffffffffffff16815260200190815260200160002060040160016101000a81548160ff0219169083151502179055508173ffffffffffffffffffffffffffffffffffffffff167ff3723224ccf3ef7268a98bbc2481e8e48c482645d932b1eb7daa63664d604659826040516126349190613018565b60405180910390a25050565b60008054906101000a900473ffffffffffffffffffffffffffffffffffffffff1681565b600160003373ffffffffffffffffffffffffffffffffffffffff1673ffffffffffffffffffffffffffffffffffffffff16815260200190815260200160002060050160009054906101000a900460ff16156126f4576040517f08c379a00000000000000000000000000000000000000000000000000000000081526004016126eb90613c43565b60405180910390fd5b6000845111612738576040517f08c379a000000000000000000000000000000000000000000000000000000000815260040161272f90613787565b60405180910390fd5b6040518060c001604052803373ffffffffffffffffffffffffffffffffffffffff16815260200185815260200184815260200183815260200182815260200160011515815250600160003373ffffffffffffffffffffffffffffffffffffffff1673ffffffffffffffffffffffffffffffffffffffff16815260200190815260200160002060008201518160000160006101000a81548173ffffffffffffffffffffffffffffffffffffffff021916908373ffffffffffffffffffffffffffffffffffffffff16021790555060208201518160010190816128199190613953565b506040820151816002015560608201518160030190816128399190613953565b50608082015181600401908161284f9190613953565b5060a08201518160050160006101000a81548160ff0219169083151502179055509050506007600081548092919061288690613a54565b91905055503373ffffffffffffffffffffffffffffffffffffffff167fc85b128388b9c331a2a5485dce4cd0f3db9f7c279d327ce95d6d39d6c94644c7856040516128d19190613c63565b60405180910390a250505050565b6000604051905090565b600080fd5b600080fd5b600073ffffffffffffffffffffffffffffffffffffffff82169050919050565b600061291e826128f3565b9050919050565b61292e81612913565b811461293957600080fd5b50565b60008135905061294b81612925565b92915050565b600060208284031215612967576129666128e9565b5b60006129758482850161293c565b91505092915050565b61298781612913565b82525050565b600081519050919050565b600082825260208201905092915050565b60005b838110156129c75780820151818401526020810190506129ac565b60008484015250505050565b6000601f19601f8301169050919050565b60006129ef8261298d565b6129f98185612998565b9350612a098185602086016129a9565b612a12816129d3565b840191505092915050565b6000819050919050565b612a3081612a1d565b82525050565b60008115159050919050565b612a4b81612a36565b82525050565b600060c082019050612a66600083018961297e565b8181036020830152612a7881886129e4565b9050612a876040830187612a27565b8181036060830152612a9981866129e4565b90508181036080830152612aad81856129e4565b9050612abc60a0830184612a42565b979650505050505050565b612ad081612a1d565b8114612adb57600080fd5b50565b600081359050612aed81612ac7565b92915050565b600060208284031215612b0957612b086128e9565b5b6000612b1784828501612ade565b91505092915050565b600060e082019050612b35600083018a61297e565b8181036020830152612b4781896129e4565b90508181036040830152612b5b81886129e4565b90508181036060830152612b6f81876129e4565b90508181036080830152612b8381866129e4565b9050612b9260a0830185612a27565b612b9f60c083018461297e565b98975050505050505050565b600060a0820190508181036000830152612bc581886129e4565b90508181036020830152612bd981876129e4565b90508181036040830152612bed81866129e4565b9050612bfc6060830185612a42565b612c096080830184612a42565b9695505050505050565b600081519050919050565b600082825260208201905092915050565b6000819050602082019050919050565b612c4881612a1d565b82525050565b6000612c5a8383612c3f565b60208301905092915050565b6000602082019050919050565b6000612c7e82612c13565b612c888185612c1e565b9350612c9383612c2f565b8060005b83811015612cc4578151612cab8882612c4e565b9750612cb683612c66565b925050600181019050612c97565b5085935050505092915050565b60006020820190508181036000830152612ceb8184612c73565b905092915050565b600061010082019050612d09600083018b612a27565b612d16602083018a61297e565b8181036040830152612d2881896129e4565b90508181036060830152612d3c81886129e4565b90508181036080830152612d5081876129e4565b905081810360a0830152612d6481866129e4565b9050612d7360c0830185612a27565b612d8060e083018461297e565b9998505050505050505050565b6000602082019050612da26000830184612a27565b92915050565b600080fd5b600080fd5b7f4e487b7100000000000000000000000000000000000000000000000000000000600052604160045260246000fd5b612dea826129d3565b810181811067ffffffffffffffff82111715612e0957612e08612db2565b5b80604052505050565b6000612e1c6128df565b9050612e288282612de1565b919050565b600067ffffffffffffffff821115612e4857612e47612db2565b5b612e51826129d3565b9050602081019050919050565b82818337600083830152505050565b6000612e80612e7b84612e2d565b612e12565b905082815260208101848484011115612e9c57612e9b612dad565b5b612ea7848285612e5e565b509392505050565b600082601f830112612ec457612ec3612da8565b5b8135612ed4848260208601612e6d565b91505092915050565b60008060008060808587031215612ef757612ef66128e9565b5b6000612f058782880161293c565b945050602085013567ffffffffffffffff811115612f2657612f256128ee565b5b612f3287828801612eaf565b935050604085013567ffffffffffffffff811115612f5357612f526128ee565b5b612f5f87828801612eaf565b925050606085013567ffffffffffffffff811115612f8057612f7f6128ee565b5b612f8c87828801612eaf565b91505092959194509250565b60008060408385031215612faf57612fae6128e9565b5b6000612fbd8582860161293c565b9250506020612fce85828601612ade565b9150509250929050565b60008060408385031215612fef57612fee6128e9565b5b6000612ffd8582860161293c565b925050602061300e8582860161293c565b9150509250929050565b600060208201905061302d6000830184612a42565b92915050565b600060c082019050613048600083018961297e565b818103602083015261305a81886129e4565b9050818103604083015261306e81876129e4565b9050818103606083015261308281866129e4565b90506130916080830185612a42565b61309e60a0830184612a42565b979650505050505050565b600080600080600060a086880312156130c5576130c46128e9565b5b60006130d38882890161293c565b955050602086013567ffffffffffffffff8111156130f4576130f36128ee565b5b61310088828901612eaf565b945050604086013567ffffffffffffffff811115613121576131206128ee565b5b61312d88828901612eaf565b935050606086013567ffffffffffffffff81111561314e5761314d6128ee565b5b61315a88828901612eaf565b925050608086013567ffffffffffffffff81111561317b5761317a6128ee565b5b61318788828901612eaf565b9150509295509295909350565b600060a08201905081810360008301526131ae81886129e4565b90506131bd6020830187612a27565b81810360408301526131cf81866129e4565b905081810360608301526131e381856129e4565b90506131f26080830184612a42565b9695505050505050565b60006060820190506132116000830186612a27565b61321e6020830185612a27565b61322b6040830184612a27565b949350505050565b61323c81612a36565b811461324757600080fd5b50565b60008135905061325981613233565b92915050565b60008060408385031215613276576132756128e9565b5b60006132848582860161293c565b92505060206132958582860161324a565b9150509250929050565b60006020820190506132b4600083018461297e565b92915050565b600080600080608085870312156132d4576132d36128e9565b5b600085013567ffffffffffffffff8111156132f2576132f16128ee565b5b6132fe87828801612eaf565b945050602061330f87828801612ade565b935050604085013567ffffffffffffffff8111156133305761332f6128ee565b5b61333c87828801612eaf565b925050606085013567ffffffffffffffff81111561335d5761335c6128ee565b5b61336987828801612eaf565b91505092959194509250565b7f4e487b7100000000000000000000000000000000000000000000000000000000600052602260045260246000fd5b600060028204905060018216806133bc57607f821691505b6020821081036133cf576133ce613375565b5b50919050565b7f50617469656e7420646f6573206e6f7420657869737400000000000000000000600082015250565b600061340b601683612998565b9150613416826133d5565b602082019050919050565b6000602082019050818103600083015261343a816133fe565b9050919050565b7f446f63746f72206e6f7420726567697374657265640000000000000000000000600082015250565b6000613477601583612998565b915061348282613441565b602082019050919050565b600060208201905081810360008301526134a68161346a565b9050919050565b7f446f63746f72206e6f7420617574686f72697a65640000000000000000000000600082015250565b60006134e3601583612998565b91506134ee826134ad565b602082019050919050565b60006020820190508181036000830152613512816134d6565b9050919050565b7f4e6f7420617574686f72697a656420746f20766965772074686973207265636f60008201527f7264000000000000000000000000000000000000000000000000000000000000602082015250565b6000613575602283612998565b915061358082613519565b604082019050919050565b600060208201905081810360008301526135a481613568565b9050919050565b7f4e6f7420617574686f72697a656420746f20766965772070617469656e74207260008201527f65636f7264730000000000000000000000000000000000000000000000000000602082015250565b6000613607602683612998565b9150613612826135ab565b604082019050919050565b60006020820190508181036000830152613636816135fa565b9050919050565b7f4f6e6c792061646d696e2063616e20706572666f726d2074686973206163746960008201527f6f6e000000000000000000000000000000000000000000000000000000000000602082015250565b6000613699602283612998565b91506136a48261363d565b604082019050919050565b600060208201905081810360008301526136c88161368c565b9050919050565b7f446f63746f7220616c7265616479207265676973746572656400000000000000600082015250565b6000613705601983612998565b9150613710826136cf565b602082019050919050565b60006020820190508181036000830152613734816136f8565b9050919050565b7f4e616d652063616e6e6f7420626520656d707479000000000000000000000000600082015250565b6000613771601483612998565b915061377c8261373b565b602082019050919050565b600060208201905081810360008301526137a081613764565b9050919050565b60008190508160005260206000209050919050565b60006020601f8301049050919050565b600082821b905092915050565b6000600883026138097fffffffffffffffffffffffffffffffffffffffffffffffffffffffffffffffff826137cc565b61381386836137cc565b95508019841693508086168417925050509392505050565b6000819050919050565b600061385061384b61384684612a1d565b61382b565b612a1d565b9050919050565b6000819050919050565b61386a83613835565b61387e61387682613857565b8484546137d9565b825550505050565b600090565b613893613886565b61389e818484613861565b505050565b5b818110156138c2576138b760008261388b565b6001810190506138a4565b5050565b601f821115613907576138d8816137a7565b6138e1846137bc565b810160208510156138f0578190505b6139046138fc856137bc565b8301826138a3565b50505b505050565b600082821c905092915050565b600061392a6000198460080261390c565b1980831691505092915050565b60006139438383613919565b9150826002028217905092915050565b61395c8261298d565b67ffffffffffffffff81111561397557613974612db2565b5b61397f82546133a4565b61398a8282856138c6565b600060209050601f8311600181146139bd57600084156139ab578287015190505b6139b58582613937565b865550613a1d565b601f1984166139cb866137a7565b60005b828110156139f3578489015182556001820191506020850194506020810190506139ce565b86831015613a105784890151613a0c601f891682613919565b8355505b6001600288020188555050505b505050505050565b7f4e487b7100000000000000000000000000000000000000000000000000000000600052601160045260246000fd5b6000613a5f82612a1d565b91507fffffffffffffffffffffffffffffffffffffffffffffffffffffffffffffffff8203613a9157613a90613a25565b5b600182019050919050565b60006040820190508181036000830152613ab681856129e4565b90508181036020830152613aca81846129e4565b90509392505050565b7f4f6e6c7920617574686f72697a656420646f63746f72732063616e207065726660008201527f6f726d207468697320616374696f6e0000000000000000000000000000000000602082015250565b6000613b2f602f83612998565b9150613b3a82613ad3565b604082019050919050565b60006020820190508181036000830152613b5e81613b22565b9050919050565b7f4e6f7420617574686f72697a656420746f20616464207265636f72647320666f60008201527f7220746869732070617469656e74000000000000000000000000000000000000602082015250565b6000613bc1602e83612998565b9150613bcc82613b65565b604082019050919050565b60006020820190508181036000830152613bf081613bb4565b9050919050565b7f50617469656e7420616c72656164792072656769737465726564000000000000600082015250565b6000613c2d601a83612998565b9150613c3882613bf7565b602082019050919050565b60006020820190508181036000830152613c5c81613c20565b9050919050565b60006020820190508181036000830152613c7d81846129e4565b90509291505056fea2646970667358221220e2f5cf50eb881bed99151edd03307722eec529418d1a122ffa8d501583bb964b64736f6c63430008130033",
  "linkReferences": {},
  "deployedLinkReferences": {}
}